:020000040800F2
:10000000287C01206102000805480008A33600088A
:10001000014800083D0800089D6900080000000034
:10002000000000000000000000000000A101000826
:100030006B09000800000000FD0100086F51000876
:100040007B0200087B0200087B0200087B0200089C
:100050007B0200087B0200087B0200086D09000893
:100060007B0200087B0200087B0200087B0200087C
:100070007B0200087B0200087B0200087B0200086C
:100080007B0200087B0200087B0200087B0200085C
:100090007B0200087B0200087B0200087709000849
:1000A0007B020008555200087B0200087B02000812
:1000B0007B0200087B0200087B0200087B0200082C
:1000C0007B0200087B0200087B020008CD4E00087E
:1000D0007B0200088D6900087B0200087B02000893
:1000E0007B0200087B0200087B0200087B020008FC
:1000F0007B0200087B0200087B0200087B020008EC
:100100007B0200087B0200087B0200087B020008DB
:100110007B0200087B0200087B0200087B020008CB
:100120007B0200087B020008410800085108000813
:100130007B0200087B0200087B0200087B020008AB
:100140007B0200087B0200087B0200087B0200089B
:100150007B0200087B0200087B0200087B0200088B
:100160007B0200087B0200087B0200087B0200087B
:100170007B0200087B0200087B02000800000000F0
:100180007B0200087B020008DFF810D000F096FA2E
:100190000048004741040308AFF30080287C012099
:1001A0002C4B19680868B0E8F04F80F30988BFF35A
:1001B0006F8F4FF0000080F311887047000000003F
:1001C00008480068006880F308884FF0000080F35A
:1001D000148862B661B6BFF34F8FBFF36F8F00DF35
:1001E00000BF00BF08ED00E0DFF80C00016841F43B
:1001F00070010160704700BF88ED00E0EFF30980F7
:10020000BFF36F8F134B1A681EF0100F08BF20ED5D
:10021000108A20E9F04F106009B44FF0500080F3CD
:100220001188BFF34F8FBFF36F8F39F0F7FD4FF099
:10023000000080F3118809BC19680868B0E8F04F25
:100240001EF0100F08BFB0EC108A80F30988BFF3CE
:100250006F8F70470C020020EFF30580704700009D
:100260000648804706480047FEE7FEE7FEE7FEE750
:10027000FEE7FEE7FEE7FEE7FEE7FEE74152000885
:10028000890100082DE9F05F0546002092469B4653
:1002900088460646814640241BE02846414647469C
:1002A000224600F04CF953465A46C01A914110D3E9
:1002B00011461846224600F033F92D1A67EB010863
:1002C0004F4622460120002100F02AF917EB0009D1
:1002D0004E41201EA4F10104DFDC484631462A4687
:1002E0004346BDE8F09F40EA01039B0703D009E0C5
:1002F00008C9121F08C0042AFAD203E011F8013B12
:1003000000F8013B521EF9D27047D2B201E000F86A
:10031000012B491EFBD270470022F6E710B51346A9
:100320000A4604461946FFF7F0FF204610BD421C5E
:1003300010F8011B0029FBD1801A704710B500226C
:1003400000E0521C835C8C5CA34201D1002BF8D1ED
:10035000D8B2E1B2401A10BD034611F8012B00F8E3
:10036000012B002AF9D1184670472DE9FE4F81EA8A
:10037000030404F0004421F0004100944FF0000B0E
:1003800023F0004350EA01045ED052EA03045BD03C
:10039000C3F30A54C1F30A552C44A4F2F334019474
:1003A000A0FB0254C1F3130141F48011C3F3130302
:1003B00043F4801301FB024400FB034E840A970AB6
:1003C00044EA815447EA8357A4FB076802958D0AE3
:1003D00005FB07854FEA932C04FB0C542705029D6F
:1003E0004FEA065847EA1637B5EB08056EEB070CDF
:1003F000870E920E47EA811742EA8312A7FB020199
:10040000B6EB0B0164EB00042B0D43EA0C335E18D2
:1004100044EB1C50DA465146E7FB0201C5F31304D6
:100420004FEA0B3343EA14534FEA0432019C43EA88
:100430000603A4F10C040294009CCDE900B400F082
:100440009DF803B0BDE8F08F00200146F9E70EB536
:1004500040F2334102910021CDE900110A460B46DA
:1004600000F08CF803B000BDC1F30A5210B5C1F31F
:10047000130140F2FF3341F480119A4201DA002067
:1004800010BD40F233439A42A2F2334203DC52429F
:1004900000F055F810BD904010BD00F0004230F063
:1004A00000400AD0C10D01F56071C0F3160042EAA8
:1004B0000151C208400711437047002001467047B0
:1004C00030B5041E71F1000404DB4FF000444042DB
:1004D00064EB0101141E73F1000405DB1C464FF0B0
:1004E0000043524263EB04038B4208BF824230BD9B
:1004F00030B5041E71F1000404DB4FF000444042AB
:1005000064EB0101141E73F1000405DB1C464FF07F
:100510000043524263EB0403994208BF904230BD4E
:10052000202A04DB203A00FA02F1002070479140B3
:10053000C2F1200320FA03F3194390407047202AA8
:1005400004DB203A21FA02F00021704721FA02F37D
:10055000D040C2F12002914008431946704710B5BF
:10056000141E73F1000408DA401C41F100019218D6
:100570005B411A4301D120F0010010BD2DE9F04D7F
:1005800092469B4611B1B1FA81F202E0B0FA80F2D4
:1005900020329046FFF7C4FF04460F4640EA0A00A7
:1005A00041EA0B0153465A46084313D0114653EA19
:1005B000010019D0C8F140025046FFF7C0FF0546C0
:1005C0000E46504659464246FFF7AAFF084305D05B
:1005D000012004E020463946BDE8F08D00200543A7
:1005E00046EAE0762C4337430A986305E40AA0EB19
:1005F00008000022FD0A44EA47540A3002D50020D0
:100600000146E9E7010510196941DDE908450019CE
:100610006941BDE8F04DA2E72DE9F04D00231A46EF
:100620001B1A8A4103DB00200146BDE8F08DC1F3AF
:100630000A52C1F3130141F480154FF0000BD107AA
:1006400002D100186D41521E0027044640F2FF11EE
:10065000384601EB620A3E468046024600204FF4CF
:100660008011FFF76CFFC2197141BB1846EB010006
:10067000B4EB030C75EB000C04D3E41A65EB000536
:1006800017460E46241908F101006D4180463428B2
:10069000E3DDF91946EB0600091BA84103D24FF030
:1006A000FF32134601E0002213461BEB070046EB26
:1006B0000A51BDE8F04DFFF752BF0000064C074D50
:1006C00006E0E06840F0010394E807009847103422
:1006D000AC42F6D3FFF75CFD14A9070834A907085C
:1006E00070B58C1810F8015B15F0070301D110F8F4
:1006F000013B2A1106D110F8012B03E010F8016B21
:1007000001F8016B5B1EF9D12B0705D40023521EA3
:100710000DD401F8013BFAE710F8013BCB1A921C0B
:1007200003E013F8015B01F8015B521EF9D5A14209
:10073000D8D3002070BD10B503F01CF810BD2DE912
:10074000F04107460C460026002509E0360239191B
:10075000491B491E88B200F008F80644681CC5B25F
:10076000A542F3DB3046BDE8F08170B504460026B3
:1007700003F092F82546E11704EB11610912A0225B
:1007800002EB4101C8B203F065F803F0B1F8E117DC
:1007900004EB11610912A4EB0121C8B203F05AF86D
:1007A00003F0A6F803F078F8A12003F053F803F063
:1007B0009FF8002003F028F8064603F083F830463F
:1007C00070BD2DE9F04105460E461746002409E0AC
:1007D000E20026FA02F2D1B22A1990B200F006F82D
:1007E000601CC4B2BC42F3DBBDE8F08170B50446C6
:1007F0000E4603F051F82546E11704EB116109128A
:10080000A02202EB4101C8B203F024F803F070F813
:10081000E11704EB11610912A4EB0121C8B203F046
:1008200019F803F065F8304603F014F803F060F8A7
:1008300003F048F80A200BF0A1FC70BD00BFFEE7F2
:1008400010B5024800F0F8F910BD0000A80600201D
:1008500010B5024800F0F0F910BD00002805002096
:100860000146087810381823B0FBF3F20848805C82
:10087000C865032A05D908686FF30900001D88655B
:1008800003E008686FF309008865886D7047000011
:10089000FC4A0708014600208A6A8B69CBB932B14D
:1008A000012A0DD0022A03D0032A10D10EE000BF86
:1008B000CB6A03F08073B3F1807F00D1012007E0A1
:1008C000CB6AB3F1C07F00D1012001E000E000BF9E
:1008D00034E08B69B3F5005F1AD132B1012A07D039
:1008E000022A03D0032A11D10AE000BF01200EE042
:1008F000CB6A03F08073B3F1807F00D1012006E062
:10090000CB6AB3F1C07F00D1012000E000BF15E049
:1009100032B1012A05D0022A04D0032A0CD103E007
:1009200000BF00BF012008E0CB6A03F08073B3F181
:10093000807F00D1012000E000BF00BF704730B5CC
:100940000468246824F4802405682C6004686360CB
:100950008468402C04D10468A2600468E16003E06C
:100960000468A1600468E26030BD704710B50220E1
:1009700000F042FB10BD10B54FF4807000F03CFB5E
:1009800010BD000008B5012039F0B4FC5C490860D6
:100990003C215C4802F032F904215B4802F05CFB28
:1009A0004FF0000857480068406A0FFA80F80024AA
:1009B000A14600BF00BF00231A466946534800689D
:1009C00030F0D4FB18BB0098002820DB0098642886
:1009D0001DDC009800EB401000EB4000642190FB10
:1009E000F1F54FF0FF31464800683AF059F8012818
:1009F00007D12C4600231A4619464148006839F0B1
:100A000073FD224642A0009906F054F800BF3D480D
:100A10000068406A06B2A6EB0807B0467FB34FF005
:100A2000FF31374800683AF03BF801281BD14348B2
:100A300000683844414908600868C11700EB9171AB
:100A40004FEAA1093D490868C11700EB917189106F
:100A5000A0EB8101394A116000231A461946284843
:100A6000006839F041FD04EB0905632D01DD6324C5
:100A700007E015F1630F03DA6FF0620401E001E0B3
:100A80002C4600BF002C12DD012211032C4800F07F
:100A9000C3FB00224FF40061294800F0BDFB25464E
:100AA0000A2D00D2002518480068856324E0002C38
:100AB00012DA00224FF48051214800F0ADFB0122F0
:100AC000D1021F4800F0A8FB65420A2D00D2002584
:100AD0000D48006885630FE000224FF480511848EC
:100AE00000F09AFB00224FF40061154800F094FBDF
:100AF00000200549096888630A2030F0E1FA5AE7C6
:100B00003800002088050020D005002028000020A3
:100B1000554920736574206D6F746F722073706512
:100B200065643A20256C642525202D3E2074617271
:100B30006765743A20256C640A0000003C000020C0
:100B4000000C024072B600BFFEE770B505460E46C7
:100B500014463146284603F0A1F9204603F086FBEF
:100B600070BD70B50446A56D00F05CFB064694F8B8
:100B70003500022808D08020606500BF002084F87E
:100B8000340000BF012070BD2068006820F016000E
:100B9000216808602068406920F080002168486171
:100BA000206C08B9A06C28B12068006820F008000B
:100BB000216808602068006820F001002168086052
:100BC00010E000F02FFB801B05280BD9202060656A
:100BD000032084F8350000BF002084F8340000BFF3
:100BE0000320D0E72068006800F001000028E8D169
:100BF00094F85C103F208840A860012084F83500FC
:100C000000BF002084F8340000BF00BFBBE70146EE
:100C100091F83500022803D08020486501207047F4
:100C2000052081F835000868006820F001000A6896
:100C300010600020F3E70000F8B5044600200090A3
:100C40008C4800684FF41651B0FBF1F7A56D2E6883
:100C500094F85C1008208840304098B12068006803
:100C600000F0040070B12068006820F004002168E2
:100C7000086094F85C1008208840A860606D40F01F
:100C80000100606594F85C1001208840304068B134
:100C90002068406900F0800040B194F85C100120A9
:100CA0008840A860606D40F00200606594F85C10B8
:100CB00004208840304068B12068006800F00200DD
:100CC00040B194F85C1004208840A860606D40F04A
:100CD0000400606594F85C1010208840304078B3C0
:100CE0002068006800F0080050B394F85C101020F1
:100CF0008840A8602068006800F4802080B12068E7
:100D0000006800F4002028B9206CC8B12046216C8E
:100D1000884715E0A06C98B12046A16C88470FE089
:100D20002068006800F4807028B92068006820F00E
:100D3000080021680860206C10B12046216C8847AB
:100D400094F85C10202088403040002865D020684E
:100D5000006800F0100000285FD094F85C1020209C
:100D60008840A86094F83500052828D120680068DC
:100D700020F01600216808602068406920F080009B
:100D800021684861206C08B9A06C28B1206800680F
:100D900020F008002168086094F85C103F2088402B
:100DA000A860012084F8350000BF002084F83400DA
:100DB00000BF206D10B12046216D8847F8BD206826
:100DC000006800F4802080B12068006800F40020F2
:100DD00028B9606C10B12046616C88471DE0E06B5B
:100DE000D8B12046E16B884717E02068006800F41E
:100DF000807068B92068006820F0100021680860E1
:100E0000012084F8350000BF002084F8340000BFC2
:100E1000E06B10B12046E16B8847606D38B3606DC0
:100E200000F00100F0B1052084F83500206800686A
:100E300020F001002168086000BF0098401C00906D
:100E4000B84200D905E02068006800F001000028E1
:100E5000F3D100BF012084F8350000BF002084F8E2
:100E6000340000BFE06C10B12046E16C884700BF41
:100E7000A4E70000AC0100202DE9F0410446002564
:100E800000F0D0F9074614B90120BDE8F081606A8E
:100E900000B100BF022084F8350000BF002084F8B4
:100EA000340000BF2068006820F00100216808605D
:100EB0000AE000F0B7F9C01B052805D920206065BD
:100EC000032084F83500E0E72068006800F00100A6
:100ED0000028EED12068056821480540D4E90101C9
:100EE0000843E16808432169084361690843A1692F
:100EF0000843E1690843216A08430543606A0428FE
:100F000003D1D4E90B01084305432068056020683C
:100F1000456925F00705606A0543606A04280DD11C
:100F2000A06A0543E06A48B12046FFF7B3FC28B148
:100F300040206065012084F83500A6E720684561FF
:100F40002046FFF78DFC064694F85C103F20884051
:100F5000B06000206065012084F83500002094E72F
:100F60003F8010F02DE9F04704460D4616461F4617
:100F70004FF00008D4F8589000BF94F834000128CE
:100F800002D10220BDE8F087012084F8340000BFC0
:100F900094F83500012825D1022084F8350000207E
:100FA00060653B46324629462046FFF7C8FC94F868
:100FB0005C103F208840C9F808002068006840F0B5
:100FC000160021680860206C28B12068006840F095
:100FD0000800216808602068006840F0010021686E
:100FE000086006E000BF002084F8340000BF4FF026
:100FF00002084046C6E7704710B50446044800683A
:10100000204020B1024804602046FFF7F4FF10BDE5
:10101000143C0140F8B502460B4600250024002090
:101020000021D6E0012606FA01F51E6806EA05044D
:10103000AC4274D11E7906F00306012E04D01E794D
:1010400006F00306022E13D190684F000326BE401F
:10105000B0434F00DE68BE403043906050680126C8
:101060008E40B0431E79C6F300168E403043506068
:101070001E7906F00306032E09D0D0684F00032620
:10108000BE40B0434F009E68BE403043D0601E79E2
:1010900006F00306022E13D1CF0802F1200656F8FF
:1010A00027004E07F70E0F26BE40B0434F07FF0E36
:1010B0001E69BE403043CF0802F1200646F82700E3
:1010C00010684F000326BE40B0431E7906F00306A9
:1010D0004F00BE40304310605E6806F44036002E7C
:1010E00076D000BF002600963C4E366846F4804617
:1010F0003A4F3E603E46366806F48046009600BF92
:1011000000BF374E8F0856F827008E07370F0F267F
:10111000BE40B043334EB24202D1002624E057E035
:10112000314EB24201D101261EE0304EB24201D111
:10113000022619E02E4EB24201D1032614E02D4EB4
:10114000B24201D104260FE02B4EB24201D1052656
:101150000AE02A4EB24201D1062605E0284EB242EC
:1011600001D1072600E008268F073F0FBE4030431D
:101170001B4E8F0846F82700224E3068A0435E6859
:1011800006F4801606B120431E4E3060361D3068CE
:10119000A0435E6806F4001606B12043194E361DC2
:1011A0003060184E361F3068A0435E6806F4003683
:1011B00006B12043134E361F3060361F3068A043FF
:1011C0005E6806F4803606B120430E4E083E30605D
:1011D000491C1029FFF426AFF8BD00004438024036
:1011E00008380140000002400004024000080240AC
:1011F000000C02400010024000140240001802409F
:10120000001C0240083C0140024613690B400BB130
:10121000012000E0002070470AB1816101E00B0469
:10122000836170470148006870470000A0010020FA
:101230000348006803490978084401490860704779
:10124000A0010020A801002010B50D48006840F45E
:1012500000700B4908600846006840F48060086030
:101260000846006840F480700860032000F0D6F85B
:101270000F2000F007F800F055F8002010BD000026
:10128000003C0240F0B587B004460026002700BFAE
:10129000002000901E48006840F001001C490860D2
:1012A0000846006800F00100009000BF00BF01A9DF
:1012B00002A800F067FA00F09DFA46001548B6FB58
:1012C000F0F0471E14481549086040F2E731134812
:1012D000C1604760002101618160816101F0AAFA6B
:1012E000054695B90D4801F009FB05466DB9192071
:1012F00000F042F8102C07D200222146192000F0FD
:101300004FF80748046000E00125284607B0F0BD0B
:101310004438024040420F0000000140080700200E
:10132000A401002008B500BF00200090114800680B
:1013300040F480400F4908600846006800F480408F
:10134000009000BF00BF00BF00200090081F006891
:1013500040F08050091F08600846006800F0805087
:10136000009000BF00BF00220F21901E00F018F86F
:1013700008BD0000443802400146084600280DDB45
:1013800000BF00BF00F01F0301229A4043099B00E9
:1013900003F1E023C3F8002100BF00BF00BF704786
:1013A0002DE9F05F80460D461646002705F0A6FBA6
:1013B000074639462A46334601F00700C0F1070ABE
:1013C000BAF1040F02D94FF0040A01E0C0F1070A94
:1013D000D14600F1040ABAF1070F02D24FF0000A19
:1013E00001E0A0F1030AD4464FF0010A0AFA09FA13
:1013F000AAF1010A0AEA020A0AFA0CFA4FF0010BF2
:101400000BFA0CFBABF1010B0BEA030B4AEA0B04E2
:101410002146404605F07AFBBDE8F09F00BF00F092
:101420000702064B19684FF6FF031940044B0B43A4
:1014300043EA0221014B196000BF70470CED00E048
:101440000000FA0508B50120034908620348006856
:10145000009000BF08BD000000000E420070004078
:10146000F8B5044600250026207800F0010020B9D8
:10147000207800F0040004282FD100205B49886602
:10148000FFF7D0FE054606E0FFF7CCFE401B022822
:1014900001D90320F8BD56480068C0F3C060002899
:1014A000F2D160688101207A41EA007050498431AC
:1014B000086001204D498866FFF7B4FE054606E046
:1014C000FFF7B0FE401B022801D90320E2E748489D
:1014D0000068C0F3C0600028F2D0207800F002005D
:1014E00002287DD100BF00200090414840300068B4
:1014F00040F080503E49403108600846006800F0E6
:101500008050009000BF00BF3A48006840F48070EF
:1015100038490860FFF786FE054606E0FFF782FEC1
:10152000401B022801D90320B4E73248006800F4C8
:1015300080700028F2D02E487030006800F44076A9
:101540004EB3A08900F44070B04224D028487030D7
:10155000006820F4407601202749086000200860D8
:10156000234870300660006800F0010098B1FFF772
:1015700059FE054608E0FFF755FE401B41F2883151
:10158000884201D9032085E7194870300068C0F30C
:1015900040000028EFD000BFA08900F44070B0F5F3
:1015A000407F0CD112480830006820F4F810134A2C
:1015B000E168114008430E490831086007E00C4813
:1015C0000830006820F4F81009490831086008481C
:1015D00070300068A189C1F30B010843044900E0A1
:1015E00002E07031086000BF002053E7000047426E
:1015F0000038024000700040400E4742FFFCFF0FE1
:1016000070B504460D460CB9012070BD58480068FD
:1016100000F00700A84209D255490D70084600683D
:1016200000F00700A84201D00120EEE7207800F08A
:10163000020002281DD1207800F00400042805D102
:101640004C48006840F4E0504A490860207800F0B7
:101650000800082805D14748006840F46040454923
:1016600008604448006820F0F000A1680843414940
:101670000860207800F00100A8B36068012807D155
:101680003C4808380068C0F34040B8B90120BCE7C6
:101690006068022802D06068032807D135480838FE
:1016A0000068C0F3406048B90120AEE7314808380F
:1016B0000068C0F3400008B90120A6E72D48006883
:1016C00020F00300616808432A490860FFF7AAFD7B
:1016D000064609E0FFF7A6FD801B41F288318842EB
:1016E00002D9032091E707E02248006800F00C00CF
:1016F0006168B0EB810FEDD11D48006800F0070074
:10170000A84209D91A490D700846006800F0070080
:10171000A84201D0012078E7207800F004000428D6
:1017200007D11448006820F4E050E16808431149EB
:101730000860207800F00800082808D10D480068EB
:1017400020F46040216940EAC1000A49086000F0C5
:1017500061F808490968C1F30311074A515CC840A0
:101760000649086006480068FFF78CFD00204CE73A
:10177000003C024008380240044B0708AC0100203E
:10178000A40100200F2202600D4A126802F0030239
:1017900042600B4A126802F0F0028260084A126846
:1017A00002F4E052C260064A126802F46042D208B3
:1017B0000261044A126802F007020A6070470000E2
:1017C00008380240003C02400148006870470000B1
:1017D000AC01002000B5FFF7F7FF04490968C1F329
:1017E0008221034A515CC84000BD00000838024015
:1017F000144B070800B5FFF7E7FF04490968C1F378
:101800004231034A515CC84000BD00000838024024
:10181000144B07082DE9F047002400250026A146B7
:101820002548006800F00C0020B1042805D00828E5
:101830003AD105E0DFF8849039E0DFF8849036E0B3
:101840001D48001F006800F03F041B48001F00688F
:1018500000F4800078B11A481749091F0968C1F3DC
:101860008811A0FB01700146224600233846FEF78E
:1018700009FD05460EE011480F49091F0968C1F32B
:101880008811A0FB01700146224600233846FEF76E
:10189000F9FC05460848001F0068C0F30140401CE1
:1018A0004600B5FBF6F902E0DFF8109000BF00BF7C
:1018B0004846BDE8F0870000083802400024F400E4
:1018C00040787D01F8B504460CB90120F8BD2078B8
:1018D00000F00100002874D0F948006800F00C0006
:1018E00004280DD0F648006800F00C00082813D139
:1018F000F348001F006800F48000B0F5800F0BD1A2
:10190000EF4808380068C0F34040002859D06068AC
:10191000002856D10120D9E700BF6068B0F5803FAC
:1019200008D1E7480838006840F48030E4490839B5
:1019300008601EE06068B0F5A02F0DD1E0480838BF
:10194000006840F48020DE490839086008460068D5
:1019500040F4803008600CE0D9480838006820F472
:101960008030D749083908600846006820F4802094
:10197000086000BF606890B1FFF754FC054606E0C0
:10198000FFF750FC401B642801D903209EE7CC4898
:1019900008380068C0F340400028F1D011E0FFF79C
:1019A00041FC054606E0FFF73DFC401B642801D9D9
:1019B00003208BE7C24808380068C0F34040002885
:1019C000F1D1207800F0020002285FD1BC48006805
:1019D00000F00C0058B1BA48006800F00C0008286C
:1019E0001CD1B748001F006800F48000B0B9B448AB
:1019F00008380068C0F3400020B1E068012801D039
:101A0000012063E7AE480838006820F0F80021693B
:101A100040EAC100AA490839086037E0E06800B32D
:101A20000120A8490860FFF7FDFB054606E0FFF727
:101A3000F9FB401B022801D9032047E7A0480838DA
:101A40000068C0F340000028F1D09D4808380068C5
:101A500020F0F800216940EAC1009949083908607E
:101A600014E0002097490860FFF7DCFB054606E01C
:101A7000FFF7D8FB401B022801D9032026E7904836
:101A800008380068C0F340000028F1D1207800F049
:101A9000080008282CD16069A8B101208A49086093
:101AA000FFF7C0FB054606E0FFF7BCFB401B022822
:101AB00001D903200AE782486C300068C0F3400077
:101AC0000028F1D014E000207F490860FFF7AAFB4E
:101AD000054606E0FFF7A6FB401B022801D90320BC
:101AE000F4E677486C300068C0F340000028F1D17C
:101AF000207800F00400042870D1002770483830A6
:101B0000006800F0805090B900BF002000906C4841
:101B10003830006840F08050694938310860084624
:101B2000006800F08050009000BF00BF01276748A8
:101B3000006800F48070B0B96448006840F48070B8
:101B400062490860FFF76EFB054606E0FFF76AFB97
:101B5000401B022801D90320B8E65C48006800F465
:101B600080700028F2D000BFA068012808D1544836
:101B70006830006840F001005149683108601DE09C
:101B8000A06805280DD14E486830006840F0040078
:101B90004B49683108600846006840F00100086061
:101BA0000CE047486830006820F001004449683183
:101BB00008600846006820F00400086000BFA068C4
:101BC000A8B1FFF72FFB054609E0FFF72BFB401BF1
:101BD00041F28831884202D9032077E626E038486E
:101BE00068300068C0F340000028EED013E0FFF733
:101BF00019FB054608E0FFF715FB401B41F2883151
:101C0000884201D9032061E62D4868300068C0F39E
:101C100040000028EFD1012F07D129483830006853
:101C200020F0805026493831086000BFA0690028A4
:101C300045D02348006800F00C0008285DD0A0695A
:101C4000022845D100201F490866FFF7EBFA054638
:101C500006E0FFF7E7FA401B022801D9032035E62A
:101C6000174808380068C0F340600028F1D1D4E973
:101C700007010843616A40EA81110122A06AC2EBB0
:101C8000500041EA00412C20005D41EA00600C490F
:101C9000091F086001200B490866FFF7C3FA0546D3
:101CA00006E0FFF7BFFA401B022801D903200DE62A
:101CB000034808380068C0F340600028F1D049E0CC
:101CC0000838024000004742800E47420070004042
:101CD000002021490866FFF7A5FA054606E0FFF750
:101CE000A1FA401B022801D90320EFE51B48006838
:101CF000C0F340600028F2D12CE0A069012800D197
:101D0000E4E51648001D0668A069012820D006F405
:101D10008001E06981421BD106F03F01206A8142C7
:101D200016D147F6C0703040616AB0EB811F0FD109
:101D300006F440310122A06AC2EB5000B1EB004F23
:101D400006D106F070612C20005DB1EB006F01D070
:101D50000120BBE50020B9E5000047420038024001
:101D600002460023106800F1500303EB810318685A
:101D7000704710B50023046804F1500303EB81039E
:101D80001A6010BD70B505460B461646002428683B
:101D900040680E4900EA0104200CD870C4F3042006
:101DA000587004F03F009870C4F3423018705EB968
:101DB000D87802F091FFD870587802F08DFF5870F3
:101DC000987802F089FF9870002070BD3FFFFF00F7
:101DD00070B504460B46164600252068806A586098
:101DE00020680069C0F30E009860206800680E4902
:101DF00000EA0105C5F305401870C5F306205870C8
:101E000005F07F009870A80DD8705EB9187802F0C0
:101E100063FF1870587802F05FFF5870987802F0EE
:101E20005BFF9870002070BD7F7F7F0070B5044617
:101E30000CB9012070BD607F20B9002020772046BA
:101E400000F04EF8022060772068C068C0F30010F0
:101E500000283CD100BFCA20216848625320216875
:101E6000486200BF204602F04FFF0546EDB92068EA
:101E700080681A49084021688860216960680843C1
:101E8000616908432168896808432168886021687E
:101E9000E068086120680169208941EA0040216802
:101EA0000861204602F055FF05465DB92068006CC8
:101EB00020F48020216808642068006CA169084330
:101EC0002168086400BFFF202168486200E0002507
:101ED0000DB9012060772846ACE70000BFFF8FFFF7
:101EE0001FB504460020009001900290039009491C
:101EF000206888420CD102200090000203906846BE
:101F0000FFF7AEFA08B1FEF71DFE01200249086096
:101F10001FBD0000002800403C0E47422DE9F04163
:101F200005460C4617464FF0000800BF287F0128E1
:101F300002D10220BDE8F0810120287700BF0220F5
:101F400068774FB9607800F01000102804D16078ED
:101F500000F0EF000A30607087B9E07802F0C7FE49
:101F60000304607802F0C3FE43EA0023A07802F085
:101F7000BEFE0343207843EA403809E0E0780004DD
:101F8000617840EA0120A1780843217840EA41388D
:101F900000BFCA202968486253202968486200BFF0
:101FA000284602F0B1FE064646B90B4808EA000092
:101FB00029684860284602F0CCFE06460EB901208A
:101FC000687700BFFF202968486200BF00BF00207B
:101FD000287700BF3046ADE73FFFFF002DE9F04115
:101FE00004460D4617464FF0000800BF207F012829
:101FF00002D10220BDE8F0810120207700BF02203D
:102000006077CFB92068806800F0400000B102E03E
:102010000020E87000BF287802F069FE03046878A9
:1020200002F065FE43EA0023A87802F060FE034355
:10203000E87843EA805812E02068806800F04000A9
:1020400000B102E00020E87000BF28780004697841
:1020500040EA0120A9780843E97840EA815800BFA6
:10206000CA202168486253202168486200BF204688
:1020700002F04AFE0646B6B9124808EA0000216896
:1020800008602068806820F4802021688860D5E995
:102090000301084321688968084321688860204655
:1020A00002F057FE06460EB90120607700BFFF2000
:1020B0002168486200BF00BF0020207700BF304683
:1020C00098E700007F7F7F0070B5044600250B482D
:1020D0002168C860FFF7A6F8054607E0FFF7A2F8F9
:1020E000401BB0F57A7F01D9032070BD2068C0681D
:1020F00000F020000028F1D00020F6E75F7F01000B
:1021000070470000F8B50446206846682068856876
:10211000C5F3801048B905F0010030B1C6F3801056
:1021200018B12046216C8847F8BDC5F3400030B196
:10213000C6F3C01018B12046616C8847F4E7C5F3B8
:10214000401030B9C5F3801018B9C5F3002000283D
:102150007CD0C6F3401000287DD0C5F38010F0B1CC
:1021600094F8510003280ED0606D40F004006065C3
:1021700000BF002000902068C06800902068806840
:10218000009000BF0BE000BF002000902068C068F6
:10219000009020688068009000BF00BFC4E7C5F3CE
:1021A000401088B1606D40F00100606500BF002004
:1021B00000902068806800902068006820F040004F
:1021C0002168086000BF00BFC5F3002058B1606DF2
:1021D00040F00800606500BF002000902068806823
:1021E000009000BF00BF606D78B32068406820F0A9
:1021F000E00021684860012084F8510006F00200E8
:10220000022802D006F0010008B32068406820F0E0
:10221000030021684860E06C50B11048E16C08652B
:10222000E06CFEF7F4FC18B1606D40F040006065B2
:10223000A06C50B10948A16C0865A06CFEF7E7FCE2
:1022400018B1606D40F04000606503E003E0204697
:10225000FFF756FF68E700BF66E70000DD4E0008A5
:1022600010B504460CB9012010BD606A38B9606829
:10227000B0F5827F00D105E00021E16102E000219C
:10228000216161610021A16294F8510028B9002008
:1022900084F85000204600F047F8022084F85100EE
:1022A0002068006820F0400021680860A08800F4E1
:1022B0008270218901F404410843A18901F400617D
:1022C0000843217C01F002010843217D01F0010156
:1022D0000843218B01F400710843217F01F038018C
:1022E00008432021095D01F080010843218D01F49C
:1022F00000510843216808600421A06901EA1040E8
:1023000094F8241001F01001084321684860206807
:10231000C06920F400602168C86100206065012068
:1023200084F8510000209FE710B586B004461421C0
:1023300001A8FDF7F1FF3049206888425AD100BF5B
:10234000002000902D48006840F480502B49086020
:102350000846006800F48050009000BF00BF00BF36
:102360000020009025481438006840F001002349FF
:10237000143908600846006800F00100009000BFB2
:1023800000BFE02001900220029000200390032073
:1023900004900520059001A91948FEF73BFE194855
:1023A000194908604FF0C0604860402116488160BC
:1023B0000021C1604FF480610161490041618900E1
:1023C00081610021C1614FF440310162002141620D
:1023D000FEF752FD08B1FEF7B5FB00BF0A48A06446
:1023E000846300BF002205212320FEF7D9FF2320AC
:1023F000FEF7C2FF06B010BD003001404438024075
:102400000000024058640240280500202DE9F843EE
:1024100004460F4616461D46FEF704FF8046B146A9
:1024200094F85100012802D00220BDE8F88307B1DA
:102430000EB90120F9E700BF94F85000012801D13E
:102440000220F2E7012084F8500000BF032084F846
:102450005100002060652763A686E686A063A087FA
:10246000E08760642064A068B0F5004F0BD120685D
:10247000006820F04000216808602068006840F48F
:102480008040216808602068006800F04000402813
:1024900005D02068006840F0400021680860E068CE
:1024A000B0F5006F37D1606810B1B9F1010F09D1F3
:1024B000206B00882168C860206B801C2063E08E40
:1024C000401EE08623E02068806800F002000228B9
:1024D0000AD1206B00882168C860206B801C2063B3
:1024E000E08E401EE08612E0FEF79CFEA0EB0800A6
:1024F000A84201D3681C00B94DB9012084F85100ED
:1025000000BF002084F8500000BF03208DE7E08E5C
:102510000028D8D136E0606810B1B9F1010F09D1B7
:10252000206B007821680873206B401C2063E08ECC
:10253000401EE08623E02068806800F00200022848
:102540000AD1206B007821680873206B401C20633F
:10255000E08E401EE08612E0FEF764FEA0EB08006D
:10256000A84201D3681C00B94DB9012084F851007C
:1025700000BF002084F8500000BF032055E7E08E24
:102580000028D8D142462946204602F00DFD08B168
:1025900020206065A06850B900BF0020009020682E
:1025A000C068009020688068009000BF00BF0120D4
:1025B00084F8510000BF002084F8500000BF606D17
:1025C00008B1012031E700202FE700002DE9F0419C
:1025D00004460E46154694F85100012802D0022008
:1025E000BDE8F08106B10DB90120F9E700BF94F80C
:1025F0005000012801D10220F2E7012084F85000A8
:1026000000BF032084F85100002060652663A58682
:10261000E586A06360642064A087E087A068B0F5C9
:10262000004F0BD12068006820F04000216808604E
:102630002068006840F48040216808601F48A16C51
:1026400008641F48A16CC8631E48A16CC8640020C0
:10265000A16C0865E38E276807F10C02216BA06C62
:10266000FEF780FC50B1606D40F01000606500BF67
:10267000002084F8500000BF0120B1E72068006806
:1026800000F04000402805D02068006840F040007D
:102690002168086000BF002084F8500000BF206857
:1026A000406840F02000216848602068406840F0A1
:1026B000020021684860002092E70000194F0008DE
:1026C000274F0008F14E000810B504460F48844219
:1026D0001BD101200E490870012210210D48FEF780
:1026E0009BFD00210948C160FFF7BAFD074800685B
:1026F000006820F400600549096808600648006821
:1027000018B1054800682EF067FE10BDD004002007
:10271000080200200008024034000020704704280E
:1027200008D14FF0E021096941F004014FF0E022A7
:10273000116107E04FF0E021096921F004014FF039
:10274000E0221161704770B504462546681EB0F15D
:10275000807F01D301200FE0681E4FF0E021486127
:102760000F214FF0FF3004F0D1F900204FF0E021AD
:10277000886107200861002070BD70477047000025
:1027800030B502460B4600BF92F83C00012801D14B
:10279000022030BD012082F83C0000BF022082F8F8
:1027A0003D00106844681068816824F0700418685F
:1027B000044310684460184D1068A8421BD010688C
:1027C000B0F1804F17D0154D1068A84213D0144DAA
:1027D0001068A8420FD0134D1068A8420BD0124DBC
:1027E0001068A84207D0114D1068A84203D0104DC0
:1027F0001068A84205D121F0800158680143106893
:102800008160012082F83D0000BF002082F83C007A
:1028100000BF00BFBDE70000000001400004004011
:1028200000080040000C004000040140004001404E
:102830000018004010B504460CB9012010BD94F8F2
:102840003D0028B9002084F83C00204600F026F81E
:10285000022084F83D00211D206802F003FD0120C4
:1028600084F8460000BF84F83E0001213F20015556
:10287000402001554120015500BF00BF012084F8D0
:10288000420043200155442001554520015500BF19
:10289000012084F83D000020D0E7000008B5144A6C
:1028A000016891420FD100BF0021009111490968D0
:1028B00041F004010F4A11601146096801F004015A
:1028C000009100BF13E00C4A016891420FD100BF94
:1028D000002100910749096841F00801054A11608B
:1028E0001146096801F00801009100BF00BF08BD52
:1028F0000008004040380240000C0040014691F8BA
:102900003D00012801D001207047022081F83D00E0
:102910000868C06840F001000B68D8601A4B08686E
:1029200098421BD00868B0F1804F17D0174B086849
:10293000984213D0164B086898420FD0154B086880
:1029400098420BD0144B0868984207D0134B086884
:10295000984203D0124B086898420CD108688068EE
:1029600000F00702062A0CD00868006840F0010059
:102970000B68186005E00868006840F001000B680B
:1029800018600020C0E70000000001400004004083
:1029900000080040000C00400004014000400140DD
:1029A000001800402DE9F04104460D46002700BF05
:1029B00094F83C00012802D10220BDE8F0810120FA
:1029C00084F83C0000BF022084F83D00206886683F
:1029D00026F0770626F47F4620688660286850280F
:1029E00033D00CDC202850D004DC00284BD0102839
:1029F00051D149E0302849D040284CD139E06028F5
:102A00002DD0702807D0B0F5805F03D0B0F5005FFF
:102A100041D10DE041E0D5E902136A68206802F077
:102A2000A2FC2068866846F077062068866034E05D
:102A3000D5E902136A68206802F095FC2068806876
:102A400040F480402168886027E0EA68696820686F
:102A500002F07AFD5021206802F090FC1DE0EA6847
:102A60006968206802F083FD6021206802F086FC1E
:102A700013E0EA686968206802F066FD402120687A
:102A800002F07CFC09E000BF00BF00BF296820689D
:102A900002F074FC01E0012700BF00BF012084F8B0
:102AA0003D0000BF002084F83C0000BF384684E7AA
:102AB0002DE9F04104460D4614B90120BDE8F0812E
:102AC00094F83D0028B9002084F83C00204600F02E
:102AD00053F8022084F83D002068806844F2070122
:102AE000884321688860211D206802F0BBFB2068B4
:102AF000D0F80880206886692068076A286840EA5C
:102B0000080840F203308643A969A86840EA01201A
:102B1000064340F60C4086434FF2F0008643E969D5
:102B2000E86840EA0120064328690001296A40EA72
:102B30000130064327F0220727F088076969686893
:102B400040EA011007432068C0F8088020688661C9
:102B500020680762012084F8460084F83E000121C5
:102B60003F200155012084F84200432001550120F7
:102B700084F83D000020A1E710B586B0044614217A
:102B800001A8FDF7C9FB1A49206888422ED100BF71
:102B9000002000901748006840F0020015490860C6
:102BA0000846006800F00200009000BF00BF00BFB0
:102BB000002000900F481038006840F004000D49D4
:102BC000103908600846006800F00400009000BF5B
:102BD00000BFC020019002200290002003900490CA
:102BE0000220059001A90448FEF714FA06B010BDB2
:102BF0000004004040380240000802402DE9F04344
:102C000004460D4694F83E603F20075D94F84280EC
:102C1000432010F804906DB9012E02D1B8F1010FD4
:102C200002D00120BDE8F083022084F83E0084F841
:102C3000420025E0042D0CD1012F02D1B9F1010F82
:102C400001D00120EEE702213F200155432001552C
:102C500016E0012E07D1012F05D1B8F1010F02D1E5
:102C6000B9F1010F01D00120DCE7022084F83E0019
:102C700002213F200155022084F8420043200155E3
:102C800015B1042D0CD105E001220021206802F0CD
:102C900059FB10E001220421206802F053FB0AE0F6
:102CA00001220021206802F04DFB0122042120684E
:102CB00002F048FB00BF00BF2068006840F0010040
:102CC000216808600020ADE7704770B504462068B1
:102CD000C5682068066906F00200022819D105F0CF
:102CE0000200022815D1401F2168086101202077C9
:102CF0002068806900F0030018B12046FFF7E4FF68
:102D000005E0204600F0F0F8204600F0A4F900208D
:102D1000207706F00400042819D105F004000428E7
:102D200015D1C0432168086102202077206880699E
:102D300000F4407018B12046FFF7C6FF05E02046BA
:102D400000F0D2F8204600F086F90020207706F047
:102D50000800082819D105F00800082815D1C0433B
:102D600021680861042020772068C06900F0030012
:102D700018B12046FFF7A8FF05E0204600F0B4F8A0
:102D8000204600F068F90020207706F01000102897
:102D900019D105F01000102815D1C0432168086131
:102DA000082020772068C06900F4407018B12046E0
:102DB000FFF78AFF05E0204600F096F8204600F075
:102DC0004AF90020207706F0010048B105F0010023
:102DD00030B16FF0010021680861204600F0C2F9AF
:102DE00006F08000802809D105F08000802805D1F8
:102DF000C043216808612046FFF7BFFC06F0400091
:102E0000402809D105F04000402805D1C043216881
:102E10000861204600F0B2F906F02000202809D110
:102E200005F02000202805D1C04321680861204614
:102E3000FFF7A4FC70BD000010B586B00446142155
:102E400001A8FDF769FA2349206888421ED100BF16
:102E5000002000902048006840F008001E490860EB
:102E60000846006800F00800009000BF00BF4FF463
:102E70000050019002200290002003900490022054
:102E8000059001A91548FEF7C5F820E0144920680F
:102E900088421CD100BF002000900F48006840F01D
:102EA00001000D4908600846006800F0010000902C
:102EB00000BF00BF04200190022002900020039078
:102EC00004900220059001A90648FEF7A3F806B079
:102ED00010BD00000008004030380240000C0240E5
:102EE000000C00400000024070472DE9F04104460C
:102EF0000D461646002700BF94F83C00012802D179
:102F00000220BDE8F081012084F83C0000BF36B10A
:102F1000042E1BD0082E31D00C2E5ED145E0294660
:102F2000206802F035FA2068806940F008002168C6
:102F300088612068806920F0040021688861206829
:102F40008069296908432168886148E0294620682A
:102F500002F056FA2068806940F4006021688861B8
:102F60002068806920F48060216888612068806919
:102F7000296940EA01202168886130E029462068FB
:102F800002F07CFA2068C06940F008002168C8613E
:102F90002068C06920F004002168C8612068C06909
:102FA000296908432168C86119E02946206802F0B0
:102FB000A1FA2068C06940F400602168C8612068F7
:102FC000C06920F480602168C8612068C0692969EF
:102FD00040EA01202168C86101E0012700BF00BF6D
:102FE00000BF002084F83C0000BF384689E710B5D8
:102FF00004460CB9012010BD94F83D0028B900200A
:1030000084F83C00204600F025F8022084F83D00BA
:10301000211D206802F026F9012084F8460000BF37
:1030200084F83E0001213F200155402001554120F8
:10303000015500BF00BF012084F842004320015524
:10304000442001554520015500BF012084F83D0072
:103050000020D0E77047704770B504460D4615B99B
:1030600094F83E000BE0042D02D13F20005D06E005
:10307000082D02D14020005D01E04120005D0128C3
:1030800001D0012070BD1DB9022084F83E000EE081
:10309000042D03D102213F20015508E0082D03D162
:1030A00002214020015502E0022141200155012268
:1030B0002946206802F046F923492068884203D057
:1030C00022492068884201D1012000E0002028B177
:1030D0002068406C40F40040216848641A49206828
:1030E00088421BD02068B0F1804F17D01849206863
:1030F000884213D01749206888420FD016492068AB
:1031000088420BD011492068884207D013492068B3
:10311000884203D01249206888420CD12068806818
:1031200000F00706062E0CD02068006840F0010071
:103130002168086005E02068006840F0010021680F
:10314000086000209EE700000000014000040140EC
:103150000004004000080040000C00400040014016
:103160000018004010B5044603492068884201D188
:10317000FEF75EF810BD0000000001407047704788
:10318000704700002DE9F84F044620680568206864
:10319000C668206847694FF00009CA4605F00F0964
:1031A000B9F1000F0AD105F0200038B106F0200077
:1031B00020B1204603F0E0F9BDE8F88FB9F1000F27
:1031C0007CD007F0010018B906F49070002875D083
:1031D00005F0010030B106F4807018B1606C40F069
:1031E0000100606405F0040030B107F0010018B17F
:1031F000606C40F00200606405F0020030B107F03E
:10320000010018B1606C40F00400606405F0080033
:1032100048B106F0200010B907F0010018B1606C49
:1032200040F008006064606C002846D005F0200083
:1032300028B106F0200010B1204603F09DF9206867
:103240004069C0F3801A606C00F0080010B9BAF150
:10325000000F2DD0204603F049F92068406900F0A6
:103260004000402820D100BF00BF2168143151E840
:10327000001F21F040002168143141E80002002ABB
:10328000F3D100BFE06B50B17F48E16B0865E06BA4
:10329000FDF7BDFC88B1E06B016D88470DE020466D
:1032A000FFF76EFF09E009E02046FFF769FF04E041
:1032B0002046FFF765FF002060647DE7206B012852
:1032C00078D105F01000002874D006F01000002816
:1032D000FAD000BF002000902068006800902068AD
:1032E0004068009000BF00BF2068406900F04000C7
:1032F000402870D1E06B006840681FFA80F8B8F190
:10330000000F58D0A08D404555DDA4F82E80E06B0D
:10331000C069B0F5807F43D000BF00BF21680C3189
:1033200051E8001F21F4807021680C3141E800024F
:10333000002AF3D100BF00BF00BF2168143151E85B
:10334000001F21F001002168143141E80002002A29
:10335000F3D100BF00BF00BF2168143151E8001F46
:1033600021F040002168143141E80002002AF3D125
:1033700000BF202084F842000020206300BF00BF6F
:1033800021680C3151E8001F21F0100021680C3138
:1033900041E80002002AF3D100BFE06BFDF7E1FB3A
:1033A00002206063A08DE28D801A81B22046FFF773
:1033B000E6FE0EE052E0A08D40450AD1E06BC06908
:1033C000B0F5807F05D102206063A18D2046FFF714
:1033D000D6FEF1E6FFE7A08DE18D401A1FFA80F8D6
:1033E000E08DD0B3B8F1000F37D000BF00BF216827
:1033F0000C3151E8001F21F4907021680C3141E834
:103400000002002AF3D100BF00BF00BF21681431C1
:1034100051E8001F21F001002168143141E8000249
:10342000002AF3D100BF202084F84200002020634E
:1034300000BF00BF21680C3151E8001F21F01000CF
:1034400021680C3141E80002002AF3D100BF0220BC
:10345000606341462046FFF792FEADE605F080002E
:1034600030B106F0800018B1204603F019FAA3E647
:1034700005F0400030B106F0400018B1204603F0DE
:103480006BF899E600BF97E6DB64000810B50446C8
:103490000CB9012010BDA06900B100E000BF94F894
:1034A000410028B9002084F84000204600F02AF8A6
:1034B000242084F841002068C06820F4005021686E
:1034C000C860204603F0D6F82068006920F49040D8
:1034D000216808612068406920F02A00216848615D
:1034E0002068C06840F400502168C8600020606413
:1034F000202084F8410084F842000020606300BF6F
:10350000C8E7000010B586B00446142101A8FCF7F6
:1035100003FF2E492068884255D100BF002000904B
:103520002B48006840F010002949086008460068F0
:1035300000F01000009000BF00BF00BF002000900E
:1035400023481438006840F001002149143908600C
:103550000846006800F00100009000BF00BF4FF473
:10356000C06001900220029000200390032004908C
:103570000720059001A91748FDF74CFD164817498B
:1035800008604FF000604860002114488160C1600D
:103590004FF480610161002141618161C16101627B
:1035A0004162FDF769FC08B1FDF7CCFA00BF0B489A
:1035B000E063846300BF002205212520FDF7F0FEB3
:1035C0002520FDF7D9FE06B010BD00000010014017
:1035D000443802400000024040640240A806002037
:1035E00070472DE9F84F04460E46174699464FF0AE
:1035F000000A94F84100202850D106B117B90120E3
:10360000BDE8F88F00206064212084F84100FDF7B8
:1036100009FE8246A784E784A068B0F5805F04D1E4
:10362000206910B90025B04602E035464FF0000889
:103630001EE05346002280212046CDF8009003F082
:103640005FF920B1202084F841000320D8E745B974
:10365000B8F80000C0F308002168486008F10208CB
:1036600003E02878216848606D1CE08C401EE084EF
:10367000E08C0028DDD15346002240212046CDF8C1
:10368000009003F03DF920B1202084F84100032090
:10369000B6E7202084F841000020B1E70220AFE720
:1036A000704700BFFEE7000024E036F0AFFB08F0F3
:1036B0004FFD00F0BDFA02F001FD20F0EDFA28F018
:1036C000B5FC00BF1AF0DEF905461AF037FA0446D9
:1036D000214609A003F0EEF928F0CCFC35F0D2FE2B
:1036E00001F054FA0FA003F0E5F937F03BFD00209C
:1036F00036F016FAD9E700004166746572206C76E0
:103700005F706F72745F646973705F696E69742C47
:10371000206163746976652073637265656E3A2013
:1037200025700A005B4F4B5D2050616765204D613D
:103730006E6167657220696E697469616C697A652A
:1037400064210D0A0000000010B5002001F060FBAC
:1037500001F0A4FB002001F091FB022008F01AFD0B
:10376000012001F055FB022008F014FD002001F0BB
:103770004FFB10BD00B587B0142102A8FCF7CCFDAB
:1037800000BF002001901348006840F0020011497A
:1037900008600846006800F00200019000BF00BF0A
:1037A000C81402901120039001200490022005907B
:1037B00002A90948FDF72EFC4FF480500290112019
:1037C00003900120049002A90348FDF723FC07B0F1
:1037D00000BD0000303802400004024010B5002057
:1037E00001F016FB01F05AFB012001F047FB02201B
:1037F00008F0D0FC012001F00BFB022008F0CAFC0D
:10380000002001F005FB10BD70B50546002401F055
:103810001DFB002614E0002001F0FAFA022008F057
:10382000B9FC012001F0F4FA6006040E01F000FB7F
:1038300008B1601CC4B2012008F0ACFC701CC6B218
:10384000082EE8DB15B9FFF7C9FF01E0FFF77CFFA1
:10385000204670BD70B5044601F020FB002001F049
:10386000D7FA002515E0E00901F008FB6006040E18
:10387000022008F08FFC012001F0CAFA022008F0B3
:1038800089FC002001F0C4FA022008F083FC681CC7
:10389000C5B2082DE7DB70BD10B501F0FFFA0120BD
:1038A00001F0ECFA012001F0B3FA042008F072FCF8
:1038B000002001F0E3FA042008F06CFC002001F085
:1038C000A7FA10BD10B501F0E9FA002001F0A0FA46
:1038D000002001F0D3FA042008F05CFC012001F084
:1038E00097FA012001F0CAFA042008F053FC10BD39
:1038F00010B5002401F0AAFA012001F0BFFA01205E
:1039000008F048FC012001F083FA012008F042FC95
:1039100007E0601CC4B2FA2C03DDFFF7D3FF0120DF
:1039200010BD01F085FA0028F3D101F071FA0020F2
:10393000F6E7000070B5054600264FF48071154883
:10394000FDF762FC0446BDB91348007870B16CB94C
:1039500003202DF0B5FB4FF480710E48FDF754FCA9
:10396000A8B9012600200C49087010E0012C0ED1E6
:103970000120094908700AE04CB903202DF0A0FB92
:103980004FF480710348FDF73FFC00B90126304633
:1039900070BD0000001002400902002008B50020A0
:1039A000009011E00020FFF7C5FF012808D100902A
:1039B000012300226946054800682DF065FC00BF20
:1039C00000BF01202DF07CFBECE70000240000206C
:1039D00070B5064616484088401E83B214480088D9
:1039E000401E82B20021084600F062FA0022102137
:1039F0001048FDF711FC012211460F48FDF70CFCA1
:103A000000240AE0002503E0304600F02FFC6D1C86
:103A100007480088A842F7D8641C05484088A0429F
:103A2000F0D8012210210348FDF7F6FB70BD00001D
:103A30006C07002000080240000402402DE9F05FFE
:103A400005460E4617469846781B401C1FFA80FA1A
:103A5000A8EB0600401C1FFA80FB0AFB0BF9B9F12A
:103A6000000F01D1BDE8F09F42F2107402E0012086
:103A70002DF026FB2A48007818B9201EA4F1010475
:103A8000F5D134B927A003F015F8012024490870B6
:103A9000E8E743463A463146284600F009FA002254
:103AA00010212748FDF7B8FB012211462548FDF7F4
:103AB000B3FB4FF400612448C160FEF7D1FB2248FC
:103AC0000068006840F400601F4909680860002031
:103AD000134908701FFA89F21B480A99FEF776FD10
:103AE00058B11AA002F0E6FF01200D49087001222A
:103AF00010211348FDF790FBB4E700BF1848006899
:103B000040680028FAD100210F48C16000680068B1
:103B100020F400600C490968086000BFA2E70000BB
:103B200008020020444D412074696D656F75742C46
:103B300020726573657474696E672E2E2E0A0000FC
:103B40000008024000040240D0040020444D4120FF
:103B50007374617274206661696C6564210A000087
:103B6000280500202DE9FF4F85B081468A460020B8
:103B7000049003900798A0EB09050898A0EB0A06AB
:103B8000CDF80890CDF804A0002D01DD012705E057
:103B90000DB9002702E04FF0FF376D42002E02DD25
:103BA0004FF0010806E016B94FF0000802E04FF0B0
:103BB000FF387642B54201DD2C4600E034464FF036
:103BC000000B21E0019A91B2029A90B200F022F823
:103BD0000498284404900398304403900498A04229
:103BE00005DD0498001B0490029838440290039865
:103BF000A04205DD0398001B03900198404401900A
:103C00000BF101001FFA80FB601C8345DADD09B06F
:103C1000BDE8F08F70B504460D462946204600F0F9
:103C20003DF90248008800F021FB70BDB001002082
:103C300010B500F01FF9CF2000F0A0FA002000F02E
:103C400083FAC92000F080FA302000F07DFAED20E0
:103C500000F094FA642000F077FA032000F074FA80
:103C6000122000F071FA812000F06EFAE82000F0D6
:103C700085FA852000F068FA102000F065FA7A20B5
:103C800000F062FACB2000F079FA392000F05CFAFB
:103C90002C2000F059FA002000F056FA342000F0F1
:103CA00053FA022000F050FAF72000F067FA2020C3
:103CB00000F04AFAEA2000F061FA002000F044FA2D
:103CC000002000F041FAC02000F058FA1B2000F05C
:103CD0003BFAC12000F052FA002000F035FAC5206E
:103CE00000F04CFA302000F02FFA302000F02CFACF
:103CF000C72000F043FAB72000F026FA362000F083
:103D00003DFA082000F020FA3A2000F037FA55205A
:103D100000F01AFAB12000F031FA002000F014FA95
:103D20001A2000F011FAB62000F028FA0A2000F05C
:103D30000BFAA22000F008FAF22000F01FFA00208F
:103D400000F002FA262000F019FA012000F0FCF938
:103D5000E02000F013FA0F2000F0F6F92A2000F01E
:103D6000F3F9282000F0F0F9082000F0EDF90E201A
:103D700000F0EAF9082000F0E7F9542000F0E4F937
:103D8000A92000F0E1F9432000F0DEF90A2000F05C
:103D9000DBF90F2000F0D8F9002000F0D5F9002061
:103DA00000F0D2F9002000F0CFF9002000F0CCF9AB
:103DB000E12000F0E3F9002000F0C6F9152000F042
:103DC000C3F9172000F0C0F9072000F0BDF9112059
:103DD00000F0BAF9062000F0B7F92B2000F0B4F992
:103DE000562000F0B1F93C2000F0AEF9052000F0BB
:103DF000ABF9102000F0A8F90F2000F0A5F93F2042
:103E000000F0A2F93F2000F09FF90F2000F09CF98C
:103E10002B2000F0B3F9002000F096F9002000F00C
:103E200093F9012000F090F93F2000F08DF92A204D
:103E300000F0A4F9002000F087F9002000F084F9D8
:103E4000002000F081F9EF2000F07EF9112000F051
:103E500095F9782008F092F9292000F08FF90120D7
:103E600000F0C2F9012211460148FDF7D5F910BD55
:103E70000000024010B5002220210748FDF7CCF9D0
:103E8000642008F07BF9012220210348FDF7C4F9E2
:103E9000322008F073F910BD0008024070B50446E6
:103EA0000D462B4622462946204600F001F870BDFB
:103EB0002DE9F04104460D4616461F461149887A01
:103EC00000F05CF9201200F03FF9E0B200F03CF99C
:103ED000301200F039F9F0B200F036F90949087BE8
:103EE00000F04CF9281200F02FF9E8B200F02CF99C
:103EF000381200F029F9F8B200F026F900F062F962
:103F0000BDE8F0816C0700202DE9FF4F83B08146AA
:103F10008A469346DDE91064404800880290A6F185
:103F20002000C6B204EBD47009EB6000401E82B2E0
:103F30000AEB0400401E83B2514648460194FFF745
:103F4000B7FF129850BB002525E00C2C07D106EBDB
:103F50004600334901EB800010F8058004E0314849
:103F600000EB061010F8058000270DE008F00100B6
:103F700018B1584600F07AF902E0069800F076F998
:103F80004FEA6808781CC7B204EBD471B7EB610F35
:103F9000ECDB681CC5B2A542D7DB2DE0002529E08B
:103FA0000C2C07D106EB46001D4901EB800010F8F0
:103FB000058004E01B4800EB061010F80580002780
:103FC00011E01648A0F800B008F0010038B10AEB83
:103FD000050291B209EB070290B2FFF71BFE4FEA10
:103FE0006808781CC7B204EBD471B7EB610FE8DB4B
:103FF000681CC5B2A542D3DB0849029808800A486C
:104000004088401E83B208480088401E82B20021CA
:104010000846FFF74DFF07B0BDE8F08FB001002064
:104020001C4B0708904F07086C0700202DE9FF4F35
:1040300083B0074691461E46109C4FF0000A0025AB
:1040400043E0701B401EC1B20A202CF023FFB9FBD5
:10405000F0F00A21B0FBF1F201FB1208BAF1000FF7
:104060001BD1701EA84218DDB8F1000F13D100203B
:104070002021A346CDE90014029004EBDB71491026
:1040800001FB057188B213490B8813490A8804990A
:10409000FFF73AFF17E04FF0010A002108F1300066
:1040A000C0B2A346CDE90141009004EBDB71491099
:1040B00001FB057188B207490B8807490A880499F2
:1040C000FFF722FF00BF681CC5B2B542B9DB07B0DD
:1040D000BDE8F08FB2010020B00100202DE9FE43C1
:1040E00006460F4615461C46DDF828801DE013489D
:1040F0000088401EB04204DB10484088401EB84291
:1041000001DABDE8FE8320788DE821010C480388A0
:104110000C48028839463046FFF7F6FE284605EB84
:10412000D07106EB61018EB2641C20787E2802DC1F
:1041300020782028DBDA00BFE3E700006C070020CE
:10414000B2010020B001002010B504460022102169
:104150000848FDF761F8012211460748FDF75CF8B1
:10416000204600F025F8012210210248FDF754F8FE
:1041700010BD0000000802400004024010B50446D3
:10418000002210210848FDF747F8002201210748C6
:10419000FDF742F8204600F00BF8012210210248FA
:1041A000FDF73AF810BD000000080240000402408C
:1041B00001B5FF23012269460148FEF727F908BD32
:1041C000D004002010B50249087AFFF7D7FF10BDD0
:1041D0006C07002070B505460C462846FFF7CEFF59
:1041E000E0B2FFF7B1FF70BD10B504462A201E49AA
:1041F00048812B2088812C20088134B1012C0FD0DC
:10420000022C18D0032C2CD120E0F0201649088075
:104210004FF4A070488008213620FFF7DBFF21E033
:104220004FF4A07010490880F020488068213620A3
:10423000FFF7D0FF16E0F0200B4908804FF4A07084
:104240004880C8213620FFF7C5FF0BE04FF4A0706F
:1042500005490880F0204880A8213620FFF7BAFFE2
:1042600000E000BF00BF10BD6C07002010B5044681
:10427000002210210948FCF7CFFF0122114608480F
:10428000FCF7CAFF2012FFF793FFE0B2FFF790FFA1
:10429000012210210148FCF7BFFF10BD00080240B9
:1042A00000040240012405E02BF022FB04462046D6
:1042B0002CF006FFF8E7000008B500BF00200090D2
:1042C0000E48006840F480000C4908600846006809
:1042D00000F48000009000BF00BF002205213A20BA
:1042E000FDF75EF83A20FDF747F8002205213B2054
:1042F000FDF756F83B20FDF73FF808BD3038024087
:1043000010B502F04DFB044A002104482DF092F84C
:104310000349086010BD0000ACB3030865510008F4
:104320000000002000B587B0142102A8FBF7F4FFBD
:1043300000BF002001906E48006840F004006C4906
:1043400008600846006800F00400019000BF00BF4C
:1043500000BF002001900846006840F0800008601F
:104360000846006800F08000019000BF00BF00BF59
:10437000002001900846006840F0010008600846EF
:10438000006800F00100019000BF00BF00BF0020E6
:1043900001900846006840F0020008600846006886
:1043A00000F00200019000BF00BF00BF002001909C
:1043B0000846006840F0100008600846006800F0F9
:1043C0001000019000BF00BF00BF00200190084610
:1043D000006840F0080008600846006800F0080027
:1043E000019000BF00BF00223A214248FCF714FFB1
:1043F000002201214048FCF70FFF002240F201415A
:104400003E48FCF709FF00224FF4F8513C48FCF706
:1044100003FF02200290012003900020049002205C
:10442000059002A93348FCF7F5FD04200290002016
:1044300003900120049002A92E48FCF7EBFD3820E0
:1044400002900120039000200490059002A92948C1
:10445000FCF7E0FD01200290039000200490022070
:10446000059002A92448FCF7D5FD40F201400290D6
:1044700001200390002004900220059002A91F480B
:10448000FCF7C8FD022002904FF488100390012031
:10449000049002A91948FCF7BDFD4FF4807002900A
:1044A0004FF4881003900120049002A91548FCF7EE
:1044B000B1FD4FF4F85002900120039000200490C9
:1044C000059002A90E48FCF7A5FD00220521072052
:1044D000FCF766FF0720FCF74FFF0022052117209D
:1044E000FCF75EFF1720FCF747FF07B000BD000098
:1044F0003038024000080240000002400004024040
:10450000000C02400010024000B587B0142102A840
:10451000FBF702FF0020019028482949086000208D
:1045200048607F2126488160FF21C1600021016130
:1045300041618161FDF77AFC08B1FCF703FB0021C2
:104540001F48FDF70DFC45F2AA51884200D126E034
:1045500006208DF808008DF809008DF80A0000206B
:1045600005900690012202A91548FDF737FD08B114
:10457000FCF7E8FA04208DF8040006208DF8050009
:1045800011208DF8060026208DF80700012201A9D0
:104590000B48FDF7C3FC08B1FCF7D4FA00BF0021BB
:1045A0000748FDF7DDFB45F2AA51884204D00A46D0
:1045B00000210348FDF7DDFB07B000BD00280040E7
:1045C000B004002010B50E480E4908604FF4827008
:1045D000486000210B488160C160016141614FF476
:1045E000007181611821C161002101624162816213
:1045F0000A21C162FDF734FE08B1FCF7A3FA10BD31
:1046000000300140D004002000B58BB0242102A866
:10461000FBF782FE002000900190194819490860BC
:10462000002048600021174881604FF6FF71C1608B
:10463000002101618161032002900020039001208C
:104640000490002005900F20069000200790012084
:104650000890002009900F200A9002A90948FEF74F
:1046600027FA08B1FCF76EFA002000900190694625
:104670000448FEF785F808B1FCF764FA0BB000BDFA
:10468000000400408805002000B58DB0002009908E
:104690000A900B900C90079008901C216846FBF73D
:1046A0003BFE1F481F4908605320486000211D48F9
:1046B00081606321C160002101618161FEF7BAF868
:1046C00008B1FCF73FFA4FF48050099009A915484A
:1046D000FEF768F908B1FCF735FA1248FEF787FCD7
:1046E00008B1FCF72FFA00200790089007A90D48A1
:1046F000FEF746F808B1FCF725FA6020009000208C
:10470000019002900490042269460648FEF7EDFBF2
:1047100008B1FCF717FA0348FEF78EFB0DB000BD99
:1047200000080040D005002000B58DB000200990A1
:104730000A900B900C90079008901C216846FBF79C
:10474000EBFD1F481F490860A720486000211D4855
:104750008160491EC160002101618161FEF76AF834
:1047600008B1FCF7EFF94FF48050099009A91548FA
:10477000FEF718F908B1FCF7E5F91248FEF737FC27
:1047800008B1FCF7DFF900200790089007A90D4851
:10479000FDF7F6FF08B1FCF7D5F960200090002086
:1047A000019002900490082269460648FEF79DFB9E
:1047B00008B1FCF7C7F90348FEF73EFB0DB000BD9A
:1047C000000C00401806002010B50B480B4908608B
:1047D0004FF4E1304860002108488160C160016108
:1047E0000C21416100218161C161FEF74FFE08B1DA
:1047F000FCF7A8F910BD0000001001406006002081
:1048000000BFFEE700BFFEE710B51E48017E1EA0F8
:1048100002F050F91B482CF06CFE18B123A002F0F6
:1048200049F910BD17482CF06BFE16482CF061FEBC
:10483000A8B1264913482CF07DFE254911482CF0DB
:1048400079FE2348006810B1214908688047204854
:104850008068A8B11E49886827F048FF10E0094821
:10486000007E401E074951F8204044B1206808B13D
:1048700020688047A06810B1A06827F037FF00BF0C
:1048800000BFCEE750070020506167655F4261635B
:104890006B2063616C6C65642C20737461636B20A6
:1048A000746F703A2025640D0A000000506167653E
:1048B0005F4261636B3A20737461636B206973209C
:1048C000656D707479210D0A00000000540000200D
:1048D0006400002070B53048017E30A002F0EAF894
:1048E0002D482CF006FE18B139A002F0E3F870BD97
:1048F0002948017E3FA002F0DDF808E02648007E4E
:10490000411E48A002F0D6F823482CF0F9FD2248B9
:10491000007E0128F2DC2048017E4AA002F0CAF89D
:104920001D48007E401E1C4951F8204021464CA0E5
:10493000A26802F0BFF8002C2BD0206820B151A053
:1049400002F0B8F820688047A06800281ED055A063
:1049500002F0B0F85AA0A16802F0ACF827F0B8FE57
:10496000054629465BA002F0A5F860A002F0A2F877
:10497000A06827F0BBFE64A002F09CF827F0A8FE18
:104980000546294653A002F095F802E065A002F022
:1049900091F800BFABE70000500700205061676549
:1049A0005F4261636B5F426F74746F6D2063616C13
:1049B0006C65642C2063757272656E74207374610B
:1049C000636B20746F703A2025640D0A00000000AC
:1049D000506167655F4261636B5F426F74746F6DB6
:1049E0003A20737461636B20697320656D7074790C
:1049F000210D0A00506F7070696E672070616765E5
:104A00007320756E74696C20746F70203D3D203189
:104A10002C2063757272656E7420746F703A202555
:104A2000640D0A002020506F7070696E67207061FD
:104A3000676520617420696E6465782025640D0ABD
:104A400000000000416674657220706F702C207346
:104A50007461636B20746F703A2025640D0A000046
:104A6000426F74746F6D20706167653A2025702CF9
:104A700020706167652D3E706167653A2025700D75
:104A80000A00000043616C6C696E6720626F747489
:104A90006F6D207061676520696E69742E2E2E0D12
:104AA0000A0000003D3D3D204265666F7265206C46
:104AB000765F7363725F6C6F6164203D3D3D0A00F9
:104AC00020207061676520616464723A2025700A55
:104AD00000000000202063757272656E742073639D
:104AE0007265656E3A2025700A000000202063611F
:104AF0006C6C696E67206C765F7363725F6C6F615C
:104B0000642E2E2E0A0000003D3D3D204166746556
:104B100072206C765F7363725F6C6F6164203D3DE1
:104B20003D0A00004552524F523A20626F74746F32
:104B30006D5F706167652D3E7061676520697320E8
:104B40004E554C4C210D0A0010B5024812F0EAF8FF
:104B500010BD00005007002010B5044604B910BD78
:104B60000948007E052800DBF9E7214606482CF0BD
:104B7000E1FC206808B120688047A06810B1A068F7
:104B800027F0B4FD00BFEAE75007002070B527F01A
:104B90009FFD88B913A001F08DFF002022F0F2FAEA
:104BA0000446204619F01AF827F092FD05462946DA
:104BB00018A001F07FFF00BF1E482CF097FC1E4993
:104BC0001C482CF0B7FC1C48006810B11A49086852
:104BD00080471948806818B11749886818F0FEFFA7
:104BE00070BD00004E6F2061637469766520736349
:104BF0007265656E21204372656174696E67206419
:104C0000656661756C742073637265656E2E2E2EF9
:104C10000D0A000044656661756C742073637265EB
:104C2000656E20637265617465643A2025700D0AB3
:104C300000000000500700205400002000B587B09D
:104C400000BF002001901248006840F001001049A8
:104C500008600846006800F00100019000BF00BF36
:104C6000142102A8FBF758FB4FF4E06002900120EA
:104C7000039000200490059002A90648FCF7CAF9A9
:104C800000224FF4E0610348FCF7C6FA07B000BD0C
:104C900030380240000C024008B5FFF7CFFF002477
:104CA00000BF6423002269460A4800682CF05EFABF
:104CB00040B99DF802209DF801109DF800002BF0EE
:104CC00062FE0446204606F041F832202CF0F8F946
:104CD000E7E700002C000020014600BF080900EBB8
:104CE0008000420001F00F001044C0B2704701463E
:104CF000002203E0521CA1F10A00C1B20A29F9D234
:104D0000100741EA1060704770B504460026002580
:104D10002068C06800F04000C8B92068C06840F052
:104D200080002168C860FCF77DFA064608E0FCF7C1
:104D300079FA801BB0F57A7F02D9042060770125CB
:104D40002068C06800F0400008B9012DEFD1284666
:104D500070BD70B5044600252068C06820F0800052
:104D60002168C8602068806800F0200030B92046C3
:104D7000FDF7AAF910B1042060770125284670BD1F
:104D80008AB000BF002001901E48006840F08050AB
:104D90001C4908600846006800F08050019000BF80
:104DA00000BFFCF74FFB00BF002205A91648FDF726
:104DB0000FF8002204A91448FCF7E4FF9DF8140042
:104DC0008DF808009DF815008DF809009DF8160073
:104DD0008DF80A009DF813008DF80B009DF8110066
:104DE0008DF80C009DF812008DF80D0000231A4676
:104DF00002A9064800682CF047FA4FF47A7034F0A4
:104E000061FED1E740380240B004002030000020AD
:104E100030B10649096841F40061044A116003E0B9
:104E20004FF00061014A1160704700001804024011
:104E300010B54FF480510448FCF7E6F9012800D181
:104E400010BD0020FCE700000004024000B585B062
:104E500014216846FBF760FA4FF480500090002060
:104E60000190012002900220039069460248FCF75D
:104E7000D1F805B000BD00000004024030B1064981
:104E8000096841F48051044A116003E04FF08051F9
:104E9000014A1160704700001804024000B585B057
:104EA00014216846FBF738FA4FF480500090112027
:104EB0000190012002900220039069460248FCF70D
:104EC000A9F805B000BD00000004024010B502487A
:104ED000FDF718F910BD0000D004002070B505469C
:104EE000AC6B0020E087E0862046FDF709F970BD35
:104EF00070B50546AC6B2068406820F0030021685F
:104F00004860606D40F010006065012084F8510039
:104F10002046FDF7F5F870BD70B50446A56B284630
:104F2000FDF7FCFB70BDF8B50546AC6BFCF77AF9F4
:104F300006462868006800F48070B0F5807F2DD0A8
:104F40002068406820F020002168486020684068A0
:104F500020F002002168486032466421204600F0BB
:104F600023F818B1606D40F020006065A06850B96A
:104F700000BF002000902068C06800902068806812
:104F8000009000BF00BF0020E086012084F851009F
:104F9000606D18B12046FDF7B3F8F8BD2046FDF767
:104FA00093FB00BFF9E700007CB504460E461546AA
:104FB0003346012202212046009500F039F828B13D
:104FC000606D40F02000606503207CBD16480068DD
:104FD0001821B0FBF1F01549B0FBF1F04FF47A71F4
:104FE000484301906068B0F5827F0DD133460022BE
:104FF00080212046009500F01BF898B1606D40F0CC
:10500000200060650320E0E700BF019800B908E0D8
:105010000198401E019020688068C0F3C0100028ED
:10502000F3D100BF0020D0E7AC01002040420F00C8
:105030002DE9F84F04460D4690461E46DDF82890AF
:10504000FCF7F0F8A0EB0900371AFCF7EBF8824602
:105050002C480068C0F3CB307843009046E0701CC9
:10506000002843D0FCF7DEF8A0EB0A00B84200D2DB
:10507000A7BB2068406820F0E000216848606068B5
:10508000B0F5827F0DD1A068B0F5004F03D0A068C5
:10509000B0F5806F05D12068006820F040002168DD
:1050A0000860A06AB0F5005F0DD100BF20680068FD
:1050B00020F40050216808602068006840F4005027
:1050C0002168086000BF012084F8510000BF002063
:1050D00084F8500000BF0320BDE8F88FFFE7009878
:1050E00008B9002702E00098401E00902068806800
:1050F0002840A84201D1012000E000204045AED167
:105100000020E9E7AC01002008B50020009021E074
:1051100000231A466946104800682CF027F8B0B9F9
:105120009DF80000012812D1FFF70EFD04460B4840
:10513000844203D10A48FFF70FFD07E00848844284
:1051400002D1FFF7C7FB01E0FFF75EFB00BF0A20BB
:105150002BF0B6FFDCE70000240000205400002004
:105160006400002000BF01202BF0AAFFFBE710B570
:105170004FF0E020006935F045FE012801D035F000
:105180003FF810BD00B593B0302107A8FBF7C4F875
:10519000142102A8FBF7C0F800BF002001902648A8
:1051A000006840F08050244908600846006800F01C
:1051B0008050019000BF00BF00BF002001901F4839
:1051C000006840F480401D4908600846006800F40B
:1051D0008040019000BF00BF0A20079001200A9084
:1051E00010200B9001200C9002200D9000210E91B8
:1051F00008210F91A82110910221119104211291EF
:1052000007A8FCF75FFB08B1FBF79CFC0F2002909E
:1052100002200390002004904FF4A05005904FF41A
:1052200080500690052102A8FCF7EAF908B1FBF7C7
:1052300089FC13B000BD00004038024000700040FF
:105240000348006840F4700001490860704700009E
:1052500088ED00E010B50248FDF737FD10BD0000F5
:105260000807002010B502682B4B98420ED0B0F111
:10527000804F0BD0294B984208D0294B984205D03B
:10528000284B984202D0284B984203D122F070025A
:105290004B681A43204B984220D0B0F1804F1DD06C
:1052A0001E4B98421AD01E4B984217D01D4B984265
:1052B00014D01D4B984211D01C4B98420ED01C4B61
:1052C00098420BD01B4B984208D01B4B984205D0FC
:1052D0001A4B984202D01A4B984203D122F44072E2
:1052E000CB681A4322F080034C6943EA04028B68BE
:1052F000C3620B688362084B984202D00A4B984203
:1053000001D10B690363036843F0040303600123C5
:105310004361026010BD0000000001400004004035
:1053200000080040000C0040000401400040014023
:10533000004401400048014000180040001C0040AB
:105340000020004030B501F01F05012404FA05F3E8
:10535000046A9C430462046A01F01F0502FA05F521
:105360002C43046230BD30B50C46816821F47F4186
:1053700042EA032525432943816030BD0A468168FE
:1053800021F0700142F0070319438160704700006B
:1053900030B5026A056A25F0010505624368846933
:1053A00024F0700424F003040D682C4322F0020260
:1053B0008D682A43104DA84200D103E00F4DA8424A
:1053C00006D100BF22F00802CD682A4322F0040271
:1053D000094DA84202D0094DA84207D123F4807399
:1053E00023F400734D692B438D692B434360846123
:1053F0004D684563026230BD000001400004014079
:1054000030B5026A056A25F01005056243688469B3
:1054100024F4E04424F440740D6844EA052422F0A6
:1054200020028D6842EA0512124DA84200D103E025
:10543000114DA84207D100BF22F08002CD6842EA98
:10544000051222F040020B4DA84202D00A4DA8429C
:1054500009D123F4806323F400634D6943EA850393
:105460008D6943EA8503436084614D688563026208
:1054700030BD0000000001400004014030B5026A68
:10548000056A25F4807505624368C46924F07004D8
:1054900024F003040D682C4322F400728D6842EA64
:1054A0000522124DA84200D103E0114DA84207D1B8
:1054B00000BF22F40062CD6842EA052222F4806235
:1054C0000A4DA84202D00A4DA84209D123F48053C4
:1054D00023F400534D6943EA05138D6943EA05132C
:1054E0004360C4614D68C563026230BD0000014085
:1054F0000004014030B5036A056A25F48055056251
:105500004468C26922F4E04222F440720D6842EA23
:10551000052223F400538D6843EA0533084DA84261
:1055200002D0084DA84204D124F480444D6944EAD5
:1055300085144460C2614D680564036230BD00009B
:10554000000001400004014030B50B461446026AD9
:10555000056A25F001050562816921F0F00141EA43
:10556000041122F00A021A438161026230BD30B593
:105570000B461446026A056A25F01005056281692A
:1055800021F4704141EA043122F0A00242EA031200
:105590008161026230BD00002DE9F84F04460D46DE
:1055A00017461E46DDE90CABDDE90A894FF4784069
:1055B00049490880012049A310228C21009028200D
:1055C000FEF78CFD012046A310228C21009078204C
:1055D000FEF784FD012043A31022A0210090282083
:1055E000FEF77CFD012040A31022A021009078202E
:1055F000FEF774FD01203DA31022B4210090282065
:10560000FEF76CFD01203AA31022B421009078200F
:10561000FEF764FD012037A31022C8210090282046
:10562000FEF75CFD012034A31022C82100907820F1
:10563000FEF754FD012031A31022DC210090282028
:10564000FEF74CFD1020042322468C2100904020C0
:10565000FEF7ECFC102004232A468C2100909020B9
:10566000FEF7E4FC102004233A46A02100904020DD
:10567000FEF7DCFC102004233246A021009090208D
:10568000FEF7D4FC102004234246B42100904020B1
:10569000FEF7CCFC102004234A46B4210090902051
:1056A000FEF7C4FC102004235246C821009040207D
:1056B000FEF7BCFC102004235A46C821009090201D
:1056C000FEF7B4FC102003230090DC2160200E9A2A
:1056D000FEF7ACFCBDE8F88FB001002078313A004D
:1056E00079313A0078323A0079323A0078333A0028
:1056F00079333A0078343A0079343A0066616320AD
:1057000069733A002DE9F0472DED068B8AB04FF012
:105710000008C14600BF1F20FA4908804FF6FF70FD
:10572000F9490880FEF754F94FF47840F5490880AC
:105730004FF6FF70FEF74CF90020F2490880012077
:10574000F2A31022282100900A20FEF7C7FC0120B6
:10575000F5A31022382100900A20FEF7BFFC01209B
:10576000F8A31022482100900A20FEF7B7FC012080
:10577000FBA31022582100900A20FEF7AFFC012065
:10578000FEA31022682100900A20FEF7A7FC4FF428
:1057900078421421084600F0FBFB0020FB49888674
:1057A0009FEDFB0A084680ED0E0ACCE3F7484168FE
:1057B00001208847F54890F8340000F0C0004028E8
:1057C0006FD14FF00009F148808E20F04000EF4982
:1057D00088860846808906A921F82800EB48008CB5
:1057E00001EB8801488008F1010000F0FF08B8F1E2
:1057F000010F09D0B8F1020F16D0B8F1030F26D06F
:10580000B8F1040F0FD138E04FF6FF7214210846AB
:1058100000F0BEFBDF490988143988B24FF47842A2
:10582000142100F0B5FB7FE3DA490988143988B206
:105830004FF6FF72142100F0ABFBD64840881438B5
:1058400081B24FF47842142000F0A2FB6CE3D148FF
:105850004088143881B24FF6FF72142000F098FB94
:10586000CC4A5288143A91B2CA4A1288143A90B279
:105870004FF4784200F08CFB56E3BDF81810BDF8E9
:105880001C20881A002801DB014600E041420C463A
:10589000BDF81A20BDF81E10501A002802DB014680
:1058A00001E042E341420D4664436D436019FAF75B
:1058B000CEFD41EC1A0BB0EE4A0AF0EE6A0A01F096
:1058C0003CF9B0EE409AF0EE609A51EC190BFAF701
:1058D000CBFD86B2BDF82010BDF82420881A002820
:1058E00001DB014600E041420C46BDF82220BDF834
:1058F0002610501A002801DB014600E041420D4607
:1059000064436D436019FAF7A2FD41EC1A0BB0EE47
:105910004A0AF0EE6A0A01F010F9B0EE409AF0EE91
:10592000609A51EC190BFAF79FFD87B200EE106AEE
:10593000F8EE400A00EE107AB8EE400A80EE801AC7
:1059400011EE10AA5046FAF7A8FD41EC180B9FED96
:10595000920B53EC102B51EC180BFAF7B1FD0AD354
:105960009FED8F0B53EC102B51EC180BFAF7C0FD89
:1059700001D306B1CFBB4FF00008864A5288143AD3
:1059800091B2844A1288143A90B24FF6FF7200F036
:10599000FFFA4FF478421421084600F0F9FA9FED1F
:1059A000820B53EC102B51EC180BFAF7DEFC41EC98
:1059B000190BFAF759FD1FFA80FABDF82600BDF859
:1059C0002410BDF82220CDE9030ACDE90121BDF85C
:1059D00020000090BDF81E30BDF81C20BDF81A1044
:1059E000BDF81800FFF7D8FDADE2FFE7BDF81810CD
:1059F000BDF82020881A002801DB014600E0414262
:105A00000C46BDF81A20BDF82210501A002801DB00
:105A1000014600E041420D4664436D436019FAF7C8
:105A200016FD41EC1A0BB0EE4A0AF0EE6A0A01F0DC
:105A300084F8B0EE409AF0EE609A51EC190BFAF748
:105A400013FD86B2BDF81C10BDF82420881A00286A
:105A500001DB014600E041420C46BDF81E20BDF8C6
:105A60002610501A002801DB014600E041420D4695
:105A700064436D436019FAF7EAFC41EC1A0BB0EE8F
:105A80004A0AF0EE6A0A01F058F8B0EE409AF0EED9
:105A9000609A51EC190BFAF7E7FC87B200EE106A36
:105AA000F8EE400A00EE107AB8EE400A80EE801A56
:105AB00011EE10AA5046FAF7F0FC41EC180B9FEDDE
:105AC000360B53EC102B51EC180BFAF7F9FC08D3FA
:105AD0009FED330B53EC102B51EC180BFAF708FD2C
